:020000040800F2
:100000000000022095EE0008A59B0008A79B0008B1
:10001000A99B0008AB9B0008AD9B000800000000F6
:1000200000000000000000000000000011EB0008CC
:10003000AF9B000800000000B1EB000801E70008DA
:10004000E5EE0008E5EE0008E5EE0008E5EE000844
:10005000E5EE0008E5EE0008E5EE0008E5EE000834
:10006000E5EE0008E5EE0008E5EE0008E5EE000824
:10007000B19B0008E5EE0008E5EE0008E5EE00089B
:10008000E5EE0008E5EE0008E5EE0008E5EE000804
:10009000C19B0008E5EE0008E5EE0008E5EE00086B
:1000A000E5EE0008E5EE0008E5EE0008E5EE0008E4
:1000B000D19B0008E5EE0008E5EE0008E5EE00083B
:1000C000E5EE0008E5EE0008E5EE0008E5EE0008C4
:1000D000E5EE0008E19B0008F19B0008019C000888
:1000E000E5EE0008E5EE0008E5EE0008E5EE0008A4
:1000F000E5EE0008119C0008E5EE0008E5EE0008BA
:10010000E5EE0008E5EE0008E5EE0008E5EE000883
:10011000E5EE0008E5EE0008E5EE0008E5EE000873
:10012000E5EE0008E5EE0008E5EE0008E5EE000863
:10013000E5EE0008E5EE0008E5EE0008E5EE000853
:10014000299C0008E5EE0008E5EE0008E5EE000851
:10015000E5EE0008E5EE0008E5EE0008E5EE000833
:10016000E5EE0008E5EE0008E5EE0008E5EE000823
:10017000E5EE0008E5EE0008E5EE000800000000EE
:08018000E5EE0008E5EE0008C1
:1001900010B5054C237833B9044B13B10448AFF3C1
:1001A00000800123237010BDE40100200000000046
:1001B00064F2000808B5034B1BB103490348AFF3D1
:1001C000008008BD00000000E801002064F2000883
:1001D000034613F8012B002AFBD1181A0138704787
:1001E00001F0FF01102A2BDB10F0070F08D010F8E8
:1001F000013B013A8B422DD010F0070F42B3F6D1EC
:10020000F0B441EA012141EA014122F007047FF004
:1002100000070023F0E80256083C85EA010586EA5B
:10022000010685FA47F5A3FA87F586FA47F6A5FA97
:1002300087F68EB9EED1F0BC01F0FF0102F00702A3
:1002400032B110F8013B013A83EA010313B1F8D14E
:100250000020704701387047002D06BF354603382F
:10026000073815F0010F07D1013015F4807F02BF68
:10027000013015F4C03F0130F0BC0138704700BFB9
:1002800081F0004102E000BF83F0004330B54FEA47
:1002900041044FEA430594EA050F08BF90EA020FB4
:1002A0001FBF54EA000C55EA020C7FEA645C7FEA47
:1002B000655C00F0E2804FEA5454D4EB5555B8BF6A
:1002C0006D420CDD2C4480EA020281EA030382EADB
:1002D000000083EA010180EA020281EA0303362D6D
:1002E00088BF30BD11F0004F4FEA01314FF4801C40
:1002F0004CEA113102D0404261EB410113F0004F52
:100300004FEA03334CEA133302D0524263EB430308
:1003100094EA050F00F0A780A4F10104D5F1200EA6
:100320000DDB02FA0EFC22FA05F2801841F1000101
:1003300003FA0EF2801843FA05F359410EE0A5F1D5
:1003400020050EF1200E012A03FA0EFC28BF4CF006
:10035000020C43FA05F3C01851EBE37101F00045BC
:1003600007D54FF0000EDCF1000C7EEB00006EEBC9
:100370000101B1F5801F1BD3B1F5001F0CD3490853
:100380005FEA30004FEA3C0C04F101044FEA4452AA
:1003900012F5800F80F09A80BCF1004F08BF5FEA31
:1003A000500C50F1000041EB045141EA050130BD11
:1003B0005FEA4C0C404141EB0101013C28BFB1F523
:1003C000801FE9D291F0000F04BF01460020B1FA6E
:1003D00081F308BF2033A3F10B03B3F120020CDA41
:1003E0000C3208DD02F1140CC2F10C0201FA0CF01F
:1003F00021FA02F10CE002F11402D8BFC2F1200C84
:1004000001FA02F120FA0CFCDCBF41EA0C01904039
:10041000E41AA2BF01EB0451294330BD6FEA040482
:100420001F3C1CDA0C340EDC04F11404C4F120026D
:1004300020FA04F001FA02F340EA030021FA04F37F
:1004400045EA030130BDC4F10C04C4F1200220FAD6
:1004500002F001FA04F340EA0300294630BD21FA14
:1004600004F0294630BD94F0000F83F4801306BFDA
:1004700081F480110134013D4EE77FEA645C18BFCE
:100480007FEA655C29D094EA050F08BF90EA020F65
:1004900005D054EA000C04BF1946104630BD91EA5D
:1004A000030F1EBF0021002030BD5FEA545C05D160
:1004B0004000494128BF41F0004130BD14F580049F
:1004C0003CBF01F5801130BD01F0004545F0FE4113
:1004D00041F470014FF0000030BD7FEA645C1ABF48
:1004E000194610467FEA655C1CBF0B46024650EA7F
:1004F000013406BF52EA033591EA030F41F40021AB
:1005000030BD00BF90F0000F04BF0021704730B530
:100510004FF4806404F132044FF000054FF0000105
:1005200050E700BF90F0000F04BF0021704730B5C6
:100530004FF4806404F1320410F0004548BF40429B
:100540004FF000013EE700BF42004FEAE2014FEAF0
:1005500031014FEA02701FBF12F07F4393F07F4FCB
:1005600081F06051704732F07F4208BF704793F0CE
:100570007F4F04BF41F40021704730B54FF46074E1
:1005800001F0004521F000411CE700BF50EA0102E4
:1005900008BF704730B54FF000050AE050EA01028D
:1005A00008BF704730B511F0004502D5404261EBFD
:1005B00041014FF4806404F132045FEA915C3FF43E
:1005C000D8AE4FF003025FEADC0C18BF03325FEADB
:1005D000DC0C18BF033202EBDC02C2F1200300FA8C
:1005E00003FC20FA02F001FA03FE40EA0E0021FAB1
:1005F00002F11444BDE600BF70B54FF0FF0C4CF49F
:10060000E06C1CEA11541DBF1CEA135594EA0C0F50
:1006100095EA0C0F00F0DEF82C4481EA030621EA8B
:100620004C5123EA4C5350EA013518BF52EA0335C6
:1006300041F4801143F4801338D0A0FB02CE4FF078
:100640000005E1FB02E506F00042E0FB03E54FF0A8
:100650000006E1FB03569CF0000F18BF4EF0010EA0
:10066000A4F1FF04B6F5007F64F5407404D25FEA9C
:100670004E0E6D4146EB060642EAC62141EA55514F
:100680004FEAC52040EA5E504FEACE2EB4F1FD0C91
:1006900088BFBCF5E06F1ED8BEF1004F08BF5FEA0F
:1006A000500E50F1000041EB045170BD06F00046C1
:1006B00046EA010140EA020081EA0301B4EB5C046E
:1006C000C2BFD4EB0C0541EA045170BD41F4801166
:1006D0004FF0000E013C00F3AB8014F1360FDEBF8B
:1006E000002001F0004170BDC4F10004203C35DA67
:1006F0000C341BDC04F11404C4F1200500FA05F3EA
:1007000020FA04F001FA05F240EA020001F000428A
:1007100021F0004110EBD37021FA04F642EB060100
:100720005EEA430E08BF20EAD37070BDC4F10C042A
:10073000C4F1200500FA04F320FA05F001FA04F2EE
:1007400040EA020001F0004110EBD37041F10001DA
:100750005EEA430E08BF20EAD37070BDC4F12005E5
:1007600000FA05F24EEA020E20FA04F301FA05F24D
:1007700043EA020321FA04F001F0004121FA04F2F5
:1007800020EA020000EBD3705EEA430E08BF20EAC5
:10079000D37070BD94F0000F0FD101F000464000FF
:1007A00041EB010111F4801F08BF013CF7D041EA81
:1007B000060195F0000F18BF704703F00046520085
:1007C00043EB030313F4801F08BF013DF7D043EA56
:1007D0000603704794EA0C0F0CEA135518BF95EA0C
:1007E0000C0F0CD050EA410618BF52EA4306D1D193
:1007F00081EA030101F000414FF0000070BD50EAB2
:10080000410606BF1046194652EA430619D094EA3B
:100810000C0F02D150EA013613D195EA0C0F05D125
:1008200052EA03361CBF104619460AD181EA030179
:1008300001F0004141F0FE4141F470014FF0000031
:1008400070BD41F0FE4141F4780170BD70B54FF0CC
:10085000FF0C4CF4E06C1CEA11541DBF1CEA13554C
:1008600094EA0C0F95EA0C0F00F0A7F8A4EB05042E
:1008700081EA030E52EA03354FEA013100F0888025
:100880004FEA03334FF0805545EA131343EA1263EE
:100890004FEA022245EA111545EA10654FEA0026A3
:1008A0000EF000419D4208BF964244F1FD0404F55C
:1008B000407402D25B084FEA3202B61A65EB0305B8
:1008C0005B084FEA32024FF480104FF4002CB6EB75
:1008D000020E75EB030E22BFB61A754640EA0C00F5
:1008E0005B084FEA3202B6EB020E75EB030E22BF35
:1008F000B61A754640EA5C005B084FEA3202B6EB76
:10090000020E75EB030E22BFB61A754640EA9C0034
:100910005B084FEA3202B6EB020E75EB030E22BF04
:10092000B61A754640EADC0055EA060E18D04FEAC2
:10093000051545EA16754FEA06164FEAC30343EA62
:1009400052734FEAC2025FEA1C1CC0D111F4801F2F
:100950000BD141EA00014FF000004FF0004CB6E728
:1009600011F4801F04BF01430020B4F1FD0C88BFC7
:10097000BCF5E06F3FF6AFAEB5EB030C04BFB6EBD2
:10098000020C5FEA500C50F1000041EB045170BDC5
:100990000EF0004E4EEA113114EB5C04C2BFD4EBF2
:1009A0000C0541EA045170BD41F480114FF0000E76
:1009B000013C90E645EA060E8DE60CEA135594EAF2
:1009C0000C0F08BF95EA0C0F3FF43BAF94EA0C0FF5
:1009D0000AD150EA01347FF434AF95EA0C0F7FF46A
:1009E00025AF104619462CE795EA0C0F06D152EABE
:1009F00003353FF4FDAE1046194622E750EA4106A2
:100A000018BF52EA43067FF4C5AE50EA41047FF4B2
:100A10000DAF52EA43057FF4EBAE12E74FF0FF3C17
:100A200006E000BF4FF0010C02E000BF4FF0010CE8
:100A30004DF804CD4FEA410C7FEA6C5C4FEA430C61
:100A400018BF7FEA6C5C1BD001B050EA410C0CBFB0
:100A500052EA430C91EA030F02BF90EA020F002012
:100A6000704710F1000F91EA030F58BF994208BF79
:100A700090422CBFD8176FEAE37040F00100704736
:100A80004FEA410C7FEA6C5C02D150EA013C07D18D
:100A90004FEA430C7FEA6C5CD6D152EA033CD3D0D8
:100AA0005DF8040B704700BF8446104662468C46D2
:100AB0001946634600E000BF01B5FFF7B7FF002805
:100AC00048BF10F1000F01BD4DF808EDFFF7F4FF2E
:100AD0000CBF012000205DF808FB00BF4DF808EDB9
:100AE000FFF7EAFF34BF012000205DF808FB00BFDC
:100AF0004DF808EDFFF7E0FF94BF012000205DF8FE
:100B000008FB00BF4DF808EDFFF7CEFF94BF0120B2
:100B100000205DF808FB00BF4DF808EDFFF7C4FFAB
:100B200034BF012000205DF808FB00BF4FEA410CF4
:100B30007FEA6C5C02D150EA013C0AD14FEA430CD7
:100B40007FEA6C5C02D152EA033C02D14FF0000014
:100B500070474FF0010070474FEA410212F5001252
:100B600015D211D56FF47873B3EB625212D94FEAF4
:100B7000C12343F0004343EA505311F0004F23FADE
:100B800002F018BF404270474FF00000704750EA33
:100B9000013005D111F0004008BF6FF000407047F0
:100BA0004FF00000704700BF4A0011D212F500124A
:100BB00011D20DD56FF47873B3EB62520ED44FEAB5
:100BC000C12343F0004343EA505323FA02F0704735
:100BD0004FF00000704750EA013002D14FF0FF3073
:100BE00070474FF0000070474FEA4102B2F1E04316
:100BF00024BFB3F5001CDCF1FE5C0DD901F0004C04
:100C00004FEAC0024CEA5070B2F1004F40EB830053
:100C100008BF20F00100704711F0804F21D113F17F
:100C20003872BCBF01F00040704741F480114FEAB8
:100C30005252C2F11802C2F1200C10FA0CF320FA41
:100C400002F018BF40F001004FEAC1234FEAD3235E
:100C500003FA0CFC40EA0C0023FA02F34FEA4303C8
:100C6000CCE77FEA625307D150EA01331EBF4FF051
:100C7000FE4040F44000704701F0004040F0FE406C
:100C800040F40000704700BF53B94AB9002908BFBB
:100C900000281CBF4FF0FF314FF0FF3000F0AAB921
:100CA000ADF1080C6DE904CE00F03CF8DDF804E08D
:100CB000DDE9022304B0704738B500220023044662
:100CC0000D46FFF70BFF28B920462946BDE83840FE
:100CD00000F00AB8204605F1004100F005F8404256
:100CE00061EB410138BD00BFD0B50C4B0022064678
:100CF0000F46FFF781FCFFF757FF0446FFF702FCA2
:100D0000074B0022FFF778FC02460B463046394677
:100D1000FFF7BAFAFFF748FF2146D0BD0000F03DCB
:100D20000000F0412DE9F047089D04468E46002B57
:100D30004DD18A42944669D9B2FA82F252B101FA8F
:100D400002F3C2F1200120FA01F10CFA02FC41EA9F
:100D5000030E94404FEA1C48210CBEFBF8F61FFA24
:100D60008CF708FB16E341EA034306FB07F19942BF
:100D70000AD91CEB030306F1FF3080F01F81994272
:100D800040F21C81023E63445B1AA4B2B3FBF8F04C
:100D900008FB103344EA034400FB07F7A7420AD9D3
:100DA0001CEB040400F1FF3380F00A81A74240F2FB
:100DB00007816444023840EA0640E41B00261DB166
:100DC000D4400023C5E900433146BDE8F0878B429B
:100DD00009D9002D00F0EF800026C5E9000130465A
:100DE0003146BDE8F087B3FA83F6002E4AD18B4234
:100DF00002D3824200F2F980841A61EB03030120DE
:100E00009E46002DE0D0C5E9004EDDE702B9FFDEC9
:100E1000B2FA82F2002A40F09280A1EB0C014FEA74
:100E20001C471FFA8CFE0126200CB1FBF7F307FBD1
:100E3000131140EA01410EFB03F0884208D91CEB74
:100E4000010103F1FF3802D2884200F2CB80434611
:100E5000091AA4B2B1FBF7F007FB101144EA0144F0
:100E60000EFB00FEA64508D91CEB040400F1FF317F
:100E700002D2A64500F2BB800846A4EB0E0440EA6D
:100E800003409CE7C6F12007B34022FA07FC4CEA76
:100E9000030C20FA07F401FA06F31C43F9404FEA69
:100EA0001C4900FA06F3B1FBF9F8200C1FFA8CFE7E
:100EB00009FB181140EA014108FB0EF0884202FAD2
:100EC00006F20BD91CEB010108F1FF3A80F0888093
:100ED000884240F28580A8F102086144091AA4B250
:100EE000B1FBF9F009FB101144EA014100FB0EFED1
:100EF0008E4508D91CEB010100F1FF346CD28E4500
:100F00006AD90238614440EA0840A0FB0294A1EB90
:100F10000E01A142C846A64656D353D05DB1B3EBED
:100F2000080261EB0E0101FA07F722FA06F3F1401D
:100F30001F43C5E9007100263146BDE8F087C2F1C4
:100F40002003D8400CFA02FC21FA03F3914001433C
:100F50004FEA1C471FFA8CFEB3FBF7F007FB103675
:100F60000B0C43EA064300FB0EF69E4204FA02F421
:100F700008D91CEB030300F1FF382FD29E422DD974
:100F8000023863449B1B89B2B3FBF7F607FB1633A9
:100F900041EA034106FB0EF38B4208D91CEB010129
:100FA00006F1FF3816D28B4214D9023E6144C91AA9
:100FB00046EA004638E72E46284605E70646E3E6B9
:100FC0001846F8E64B45A9D2B9EB020864EB0C0EC3
:100FD0000138A3E74646EAE7204694E74046D1E7D2
:100FE000D0467BE7023B614432E7304609E7644480
:100FF000023842E7704700BF70B50D4D0D4C641BC1
:10100000A4100026A64209D10B4D0C4C0EF02AF973
:10101000641BA4100026A64205D170BD55F8043B00
:1010200098470136EEE755F8043B98470136F2E75A
:10103000EC080108EC080108EC080108F0080108B8
:1010400002440346934200D1704703F8011BF9E7BD
:101050002DE9FF4755EC104B002D0E4619462B4647
:10106000BBBF05F100431D4600232D230B700D9BD4
:10107000DDF830A0914623F02008BCBF224614467C
:10108000B8F1460F05D0B8F1450F00D10136022165
:1010900000E0032103AB019302AB009345EC104B3E
:1010A0005346324601F0ACFDB8F1470F074602D176
:1010B00019F0010F22D0B8F1460F07EB060910D145
:1010C0003B78302B0AD10022002320462946FFF727
:1010D000FBFC18B9C6F10106CAF80060DAF8003066
:1010E00099440022002320462946FFF7EDFC08B171
:1010F000CDF80C903022039B4B4507D3039B0E9AEF
:10110000DB1B3846136004B0BDE8F087591C03911F
:101110001A70F0E7F7B503460029B8BF494203F853
:10112000022BB4BF2D222B22092942702ADD0DF19A
:101130000704A4460A27A6460A4691FBF7F607FBD2
:1011400016153035632A04F1FF340EF8015C314680
:10115000F1DC3031AEF1020504F8011C441C2946D3
:1011600061450AD30DF10902A2EB0E02654588BF65
:1011700000221344181A03B0F0BD11F8012B04F833
:10118000012FEDE7302330318370C170031DF1E78B
:101190002DE9F04F2DED028B8DB00C46DDF860800F
:1011A00016461F46054602F08FFED0F800A05046B6
:1011B000FFF70EF800230A9323680593D8F8003050
:1011C00094F818B0073323F0070303F10802C8F8B6
:1011D0000020D3E90023C4E91223D4E9128929F0BD
:1011E00000430793CDF8188008EE100A9F4BDDE905
:1011F00006014FF0FF32FFF799FC88BBDDE90601DD
:101200009A4B4FF0FF32FFF773FC48BB00220023DC
:1012100040464946FFF762FC10B12D2384F8433065
:10122000934B9448BBF1470F94BF984680460323E5
:101230002361059B23F0040222604FF00009009710
:1012400033460BAA2146284600F0D8F9013040F079
:1012500090804FF0FF300DB0BDEC028BBDE8F08FF9
:1012600042464B4640464946FFF760FC40B14B467C
:10127000002BBCBF2D2384F843307F487F4BD1E740
:1012800063680BF0DF0206925A1C3FD106236360AD
:10129000059B616843F48062002303930AABCDE9A8
:1012A00001B309AB49EC108B009322600DF12303CD
:1012B0002846FFF7CDFE069B0999472B804608D1AB
:1012C000C81C02DB6368994241DDABF1020B5FFA97
:1012D0008BFBBBF1650F20D801395A4604F1500051
:1012E0000991FFF717FF0A9A1318012A8146236113
:1012F00002DC2268D20701D5013323619DF8233037
:10130000002B9CD02D2384F8433098E7069A472A77
:10131000BED1002BBCD10123B9E7BBF1660F18D1B8
:10132000002963680BDD216113B92268D00702D55B
:1013300001330B442361A1654FF00009DEE713B9C7
:101340002268D20701D50233F4E70123F2E74FF018
:10135000670B0A9B994205DB23682161D807EAD510
:101360004B1CE7E70029D4BFC1F10202012213445C
:10137000E0E723685A0507D42369424631462846E8
:10138000B84701302CD164E7BBF1650F40F2E08033
:10139000D4E9120100220023FFF796FB002834D085
:1013A000374A012331462846B84701303FF451AF50
:1013B000DDE909239A4202DB2368D80710D518EE2D
:1013C000103A524631462846B84701303FF441AF03
:1013D0004FF0000804F11A090A9B013B434509DC60
:1013E00023689B0700F10581E0680B9B9842B8BF1A
:1013F000184630E701234A4631462846B8470130AF
:101400003FF427AF08F10108E6E7099B002B39DC20
:101410001B4A012331462846B84701303FF419AF33
:10142000DDE90923134302D12368D907D8D518EE83
:10143000103A524631462846B84701303FF409AFCA
:101440004FF0000904F11A0A099B5B424B4501DC8D
:101450000A9B92E70123524631462846B84701309D
:101460003FF4F7AE09F10109EEE700BFFFFFEF7FA0
:1014700084F2000888F2000890F200088CF200085C
:1014800094F200080A9AA36D9A42A8BF1A46002A4D
:10149000914637DC4FF0000B29EAE97904F11A0292
:1014A000A36D0593A3EB09035B4533DCDDE9092359
:1014B0009A423BDB2368DA0738D40A9B059A0999DC
:1014C0009A1AA3EB01099145A8BF9146B9F1000F03
:1014D00035DC4FF0000829EAE97904F11A0ADDE960
:1014E00009239B1AA3EB090343457FF779AF012337
:1014F000524631462846B84701303FF4AAAE08F1BB
:101500000108ECE71346314642462846B847013009
:10151000C0D19EE60123314628460592B8470130E6
:101520003FF497AE059A0BF1010BB9E718EE103AAC
:10153000524631462846B8470130BED189E6059A61
:101540004B46424431462846B8470130C1D180E677
:101550000A9A012A01DCDB0738D5012342463146CD
:101560002846B84701303FF474AE18EE103A5246A0
:1015700031462846B84701303FF46BAED4E912013A
:1015800000220023FFF7A0FAD8B90A9B08F1010254
:10159000013B31462846B84701300ED159E60123B8
:1015A000524631462846B84701303FF452AE08F162
:1015B00001080A9B013B4345F1DC4B4604F1500214
:1015C000DCE64FF0000804F11A0AF2E70123424674
:1015D000DFE701234A4631462846B84701303FF449
:1015E00038AE08F10108E3680B995B1A4345F0DC5B
:1015F000FAE64FF0000804F11909F4E72DE9F04785
:10160000164699468A680B69DDF820809342B8BF78
:101610001346336091F8432007460C460AB1013364
:1016200033602368990642BF33680233336025680C
:1016300015F0060506D104F1190AE36832689B1A11
:10164000AB4226DC94F84320131E226818BF012306
:1016500092062BD404F1430249463846C047013074
:101660001ED02368E568326803F00603042B08BF28
:10167000AD1AA36822690CBF25EAE57500259342DF
:10168000C4BF9B1AED1800261A34B5421AD10020A7
:1016900008E00123524649463846C047013003D18D
:1016A0004FF0FF30BDE8F0870135C6E7E1185A1C5E
:1016B000302081F84300224494F8451082F843100A
:1016C0000233C7E70123224649463846C047013066
:1016D000E6D00136D9E700002DE9FF470F7E0C9DCB
:1016E000782F914680460C469A4601F1430207D86E
:1016F000622F0AD8002F00F0D880582F00F0A38066
:1017000004F1420584F842703AE0A7F16303152B17
:10171000F6D801A151F823F07117000885170008C9
:101720000117000801170008011700080117000839
:1017300085170008011700080117000801170008A5
:101740000117000891180008B51700087318000861
:101750000117000801170008B31800080117000856
:10176000B517000801170008011700087B180008CA
:101770002B681A1D1B682A6004F1420584F8423068
:101780000123A3E020682968060601F104030AD5B5
:101790000E682B60002E03DA2D23764284F8433046
:1017A0005E480A2319E00E682B6010F0400F18BF46
:1017B00036B2EFE72B682068191D2960010601D5B4
:1017C0001E6802E04606FBD51E8854486F2F0CBFEA
:1017D00008230A23002184F843106568A560002DC2
:1017E000A2BF216821F0040121600EB9002D4DD067
:1017F0001546B6FBF3F103FB1167C75D05F8017DE4
:101800003746BB420E46F4D9082B0BD12368DE07BE
:1018100008D5236961689942DEBF302305F8013C91
:1018200005F1FF35521B2261CDF800A04B4603AAFB
:1018300021464046FFF7E2FE01304CD14FF0FF3029
:1018400004B0BDE8F087354881F845702968236801
:1018500051F8046B29601D0614D5DF0744BF43F01F
:10186000200323601EB9236823F020032360102384
:10187000B0E7236843F0200323607823284884F8E6
:101880004530E3E7590648BFB6B2E6E71546BBE781
:101890002B6826686169181D286035061B6801D50C
:1018A000196002E07006FBD51980002323611546FC
:1018B000BAE72B681A1D2A601D6862680021284655
:1018C000FEF78EFC08B1401B606063682361002353
:1018D00084F84330A8E723692A4649464046D04762
:1018E0000130ABD023689B0713D4E068039B984278
:1018F000B8BF1846A4E70123324649464046D047C0
:1019000001309BD00135E36803995B1AAB42F2DCEE
:10191000EBE7002504F11906F5E700BF96F2000891
:10192000A7F200082DE9F04F87B0174603938B68A4
:101930005A1EB2F5AE7F83BF6FF4AE755B1902938A
:10194000002386BF40F25D138B6002930B688B46C9
:10195000002543F4F0634BF81C3BCDE90455804669
:101960000C465E46AA46A9460195A26852B13B685C
:101970001B784E2B64D8402B3CD8A3F12B01C8B266
:101980000E283AD9B9F1000F03D0236823F48073ED
:1019900023600AF1FF3ABAF1010F00F213815E45AC
:1019A00000F205810125284607B0BDE8F08FA3F1BC
:1019B00061020D2AE6D801A151F822F0FB1A0008B5
:1019C0008519000885190008851900085B1B0008A7
:1019D000331B00088519000885190008091B000839
:1019E000851900088519000885190008851900085F
:1019F000C11A0008A3F14102DBE70E29C2D801A0F9
:101A000050F821F0B31A000885190008B31A00082D
:101A1000471B000885190008611A00089D1A000874
:101A20009D1A00089D1A00089D1A00089D1A0008BA
:101A30009D1A00089D1A00089D1A00089D1A0008AA
:101A40006E2B09D8602BB2D8542B77D0592B99D153
:101A5000072D97D1082529E0742B6FD0792BF6E755
:101A60002168C8051AD5029B21F08001216009F187
:101A700001091BB1013B01320293A260A368013B43
:101A8000A3602369013323617B68013B002B7B60EA
:101A900040F384803B6801333B6066E71AEB050F37
:101AA0007FF470AF226822F4C072226006F8013B16
:101AB000E4E7226810067FF565AF22F08002F4E7C4
:101AC000BAF1000F0ED1B9F1000F0ED1226802F465
:101AD000E061B1F5E06F08D122F4F06222604FF0CE
:101AE000010AE3E7BAF1020F55D0012D02D0042D0F
:101AF0007FF448AF0135EDB2D8E7BAF1010F7FF4BA
:101B000041AF4FF0020AD1E77DB9B9F1000F7FF480
:101B10003CAF226802F4E061B1F5E06F7FF439AFC9
:101B200022F4F06222600125C0E7032DE2D0052DEA
:101B3000DEE7022D7FF426AF0325B7E7062D7FF4FD
:101B400021AF0725B2E7226891057FF51BAF22F48C
:101B500020722260CDF80490A8E7226802F4A06108
:101B6000B1F5806F06D050057FF50CAFB9F1000FCD
:101B70003FF40FAF910558BF019922F4F06258BFAE
:101B8000A9EB010142F4C07258BFCDE904162260EE
:101B90004FF000098AE74FF0030A87E7D4F8803155
:101BA00039464046984700283FF4DFAEEAE6D4F8CD
:101BB0007C3116F8011D3A46404698472369013B9F
:101BC0002361ECE66B1E062B25D8022D36D85E4528
:101BD0007FF6E8AED4F87C3116F8011D3A4640464F
:101BE00098472369013B2361F1E70298D4F87C31DF
:101BF00010F8011D02903A46404698472369013B80
:101C000023610AF1FF3A5FFA8AFABAF1020FECD1C6
:101C1000033DEDB2761B2368DA052FD55B0510D5A1
:101C20005E457FF6BFAED4F87C3116F8011D3A460A
:101C3000404698472369013B2361F1E7AA46029693
:101C4000DFE716F8011C2369652903F1FF3306F16C
:101C5000FF3523610CD045290AD0D4F87C313A46AF
:101C600040469847236916F8021C013BB51E2361C4
:101C7000D4F87C313A46404698472E46256815F000
:101C8000100559D13570236803F4C063B3F5806F34
:101C90001BD1019B4B45A3EB090223D100225946DE
:101CA000404600F097FE2268039B12F0020F57ECAB
:101CB000106B1B6821D003991A1D0A601B68C3E9C9
:101CC0000067E3680133E3606DE6049B002BE5D019
:101CD00005990A232A460131404600F003FF049B80
:101CE000059EC21A04F26F139E4228BF04F5B77610
:101CF0001249304600F02CF8D0E7039912F0040F97
:101D000003F104020A60D9D1D3F8008010EE102A42
:101D100010EE100A3B463946FEF708FF28B1084886
:101D200000F010F888ED000ACBE730463946FEF7A0
:101D30005BFFC8F80000C4E7002534E6B8F20008ED
:101D400028F700089FED010A704700BF0000C07F20
:101D50000EB400B59CB01DAB029006906FF0004130
:101D6000094807910491094953F8042B059100682B
:101D7000019302A902F0E8FE029B00221A701CB037
:101D80005DF804EB03B07047000000200802FFFF7D
:101D900070B504460D4645EC104B164602F032FC79
:101DA00051EC100B7EB1C5F30A53C3F16B03002B4A
:101DB00009DD1B0503F17F55002405F5401522467A
:101DC0002B46FEF719FC70BD2DE9F04F2DED028B6F
:101DD0009DB01F4600231893A24B13921B680593D6
:101DE000044618468846FEF7F3F94FF0000A054608
:101DF0004FF0000BCDF85C80179B1A782B2A4ED041
:101E00003BD80D2A34D8082A34D8002A3ED00023E3
:101E10000A93179E3378302B40F0B080737803F02C
:101E2000DF03582B68D10A9B019318AB02970093EC
:101E30008D4A19AB17A9204601F03EFD10F00707A7
:101E4000054605D0062F2CD10136002317960A939C
:101E5000139B002B40F090850A9BEBB152460BF18F
:101E6000004343EC102B1DB0BDEC028BBDE8F08F9E
:101E7000202ACCD101331793BEE72D2AC7D10122E6
:101E80000A925A1C17925B78002BC2D1139BCDF893
:101E90005C80002B40F06E8552465B46E1E70022F5
:101EA000EEE7189A3AB135211AA802F0B6FC189953
:101EB000204602F075F8013F042F06D8DFE807F04E
:101EC0000A0314170A00DDE91AAB2807C0D54BF046
:101ED000004BBDE7DDE91AA3199A23F4801302F23F
:101EE000334243EA025BF0E7DFF880B1EDE76FF0E1
:101EF000004B4FF0FF3AE8E7179B5A1C17925B78AC
:101F0000302BF9D0002BA3D001234FF0000904930C
:101F1000179B0893CDF81C904F460A221798067815
:101F2000A6F13003D9B209292AD905992A4602F027
:101F300023FF98B3002032463D4605900346652AAC
:101F400001D0452A18D11DB9049A02439ED000251C
:101F5000DDF85C8008F10102179298F801202B2A25
:101F600075D02D2A7BD04FF0000CA2F13001092949
:101F700040F28280CDF85C8000269DE00023C4E71B
:101F8000082FD8BF079900F10100DABF02FB013327
:101F9000079302FB093901371790BFE7179B5A19BE
:101FA00017925A5D002F37D005903D46A2F13003BD
:101FB000092B12D90123C2E7179B5A1C17925A7892
:101FC0000130302AF8D0A2F13103082B00F2D98475
:101FD000179B0590002008930546303A00F1010355
:101FE00014D00599194405912B4600EB050E0A21E2
:101FF000734513D12B18082B05F1010505441CDC92
:1020000007990A2303FB012307930023179A511C06
:10201000179152781846C9E73846D2E7082B04DCF6
:10202000079E4E4307960133E2E703F1010CBCF132
:10203000100FD8BF01FB09F9F5E7102DDCBF0A230B
:1020400003FB0929E1E70023059301237CE74FF017
:10205000000C08F10202179298F8022085E74FF071
:10206000010CF6E74CF50008C0F200080000F07F14
:10207000179A511C17915278302AF9D0A2F13101E8
:1020800008293FF679AFA2F1300E179A0692179AF7
:10209000511C17915278A2F13006092E37D9069EAD
:1020A000891B082944F61F6602DC7645A8BF7646E0
:1020B000BCF1000F00D07642002D4DD104990143B0
:1020C0007FF4C6AE002B7FF4E1AE692A27D024DC72
:1020D000492A24D04E2A7FF4D9AE9F4917A801F08F
:1020E00043FE00283FF4D2AE179B1B78282B2DD13E
:1020F0009A491AAA17A801F04BFE052826D11B9B66
:10210000DDF868A043F0FF4B4BF4E00BA0E60A219A
:1021100001FB0E2EAEF1300EB9E76E2ADBE79049D7
:1021200017A801F021FE00283FF4B0AE179B8D499F
:10213000013B17A8179301F017FE10B9179B013345
:102140001793DFF830B24FF0000A81E6864802F0BC
:10215000FBFD5BEC10AB7BE6059B0798F31A002FA9
:1021600008BF2F46102D0693A846A8BF4FF01008B1
:10217000FEF7C8F9092D82468B4613DD7B4B03EB36
:10218000C80353E91223FEF737FA824648468B46C6
:10219000FEF7B8F902460B4650465946FEF776F868
:1021A00082468B460F2D38DC069B002B3FF450AE49
:1021B00024DD162B0BDC6D4901EBC301D1E90001D5
:1021C00052465B46FEF718FA82468B4640E6069A70
:1021D000C5F12503934220DB644CC5F10F0504EBE8
:1021E000C50152465B46D1E90001FEF705FA069BA0
:1021F0005D1B04EBC504D4E90023E3E7069B16331B
:102200000BDB059B9E1B594B03EBC606D6E900234F
:1022100050465946FEF71AFBD6E7069BA5EB080881
:102220009844B8F1000F74DD18F00F030AD04F493D
:1022300001EBC30152465B46D1E90001FEF7DCF930
:1022400082468B4638F00F084FD0B8F59A7F22DDD2
:1022500000252E46079505952223DFF818B1236047
:102260004FF0000A079B002B3FF4F2AD189920466F
:1022700001F096FE0599204601F092FE3146204677
:1022800001F08EFE0799204601F08AFE294620467D
:1022900001F086FEDCE5364B049300234FEA281854
:1022A000504659469946B8F1010F21DC0BB18246E0
:1022B0008B462F4BABF1547B03EBC90952465B466F
:1022C000D9E90001FEF798F92A4B0A460B402A4942
:1022D0008B428246BCD8A1F580118B4286BFDFF8C5
:1022E0009CB04FF0FF3A02F1547B0023049384E04A
:1022F00018F0010F05D0049BD3E90023FEF77CF909
:102300000123049A083209F101094FEA680804928E
:10231000C9E7EAD0C8F1000818F00F020AD0134B41
:1023200003EBC20350465946D3E90023FEF78EFA69
:1023300082468B465FEA2818D7D0B8F11F0F1FDD01
:1023400000252E460795059522234FF0000A4FF0F1
:10235000000B236086E700BF91F20008D4F200086A
:1023600089F2000814F4000828F7000808F60008AD
:10237000E0F500080000F07F0000A07CFFFFEF7F89
:1023800018F0100318BF6A23DFF8AC93049350468B
:102390005946002318F0010F04D0D9E90023FEF7B5
:1023A0002BF901235FEA680809F10809F2D10BB1A2
:1023B00082468B46049BC3B1CBF30A52C2F16B0336
:1023C000002B594611DD1F2B40F32481342BDEBF37
:1023D000C2F14B024FF0FF3303FA02F24FF0000A52
:1023E000CCBF4FF05C7B02EA010B00220023504679
:1023F0005946FEF769FB0028A2D1079B0093089974
:102400002B463A46204601F033FE079000283FF461
:102410001FAF059B9E1B069B002BB4BF33460023BA
:102420000C93069B002523EAE37312932E46079B29
:102430002046596801F074FD059000283FF40CAF68
:10244000079B1A69023203F10C0192000C3001F073
:1024500059FD4BEC10AB1AAA19A9204602F04EF90F
:102460004BEC18AB189000283FF4F6AE0121204643
:1024700001F098FE064600283FF4EEAE199B049941
:10248000002BABBF0C9A129A129FDDF83090ACBFB4
:1024900003EB0209D71A1A9AA3EB01089044A14B47
:1024A00008F1FF389845C2F1360280F2C780A3EBED
:1024B00008031F2BA2EB03024FF0010100F3B180D0
:1024C00001FA03F30D930023089309EB0208049B20
:1024D000C14517441F444B46A8BF4346BB42A8BF53
:1024E0003B46002BC2BFA8EB0308FF1AA9EB030968
:1024F0000C9B002B17DD31461A46204601F012FFD7
:10250000064600283FF4A8AE0146189A204601F07E
:102510005FFE0B9000283FF49FAE1899204601F013
:102520003FFD0B9B1893B8F1000F00F38C80069BC6
:10253000002B08DD129A0599204601F0F3FE059064
:1025400000283FF489AE002F08DD05993A46204661
:1025500001F042FF059000283FF47EAEB9F1000F74
:1025600008DD31464A46204601F036FF064600287F
:102570003FF472AE059A1899204601F0B9FF05465E
:1025800000283FF469AEC3680B930023C360314653
:1025900001F092FF002860DA0B9B53EA0A0340F037
:1025A0008280CBF31303002B7DD12BF000431B0D56
:1025B0001B05B3F1D66F76D96B6913B92B69012B63
:1025C00071DD29460122204601F006FF314605460D
:1025D00001F072FF002866DD0499534A5B4600292A
:1025E00000F0818002EA0B01B1F1D66F7BDCB1F122
:1025F0005C7F7FF7A9AE4D4B504659460022FDF750
:10260000FBFF0B46034308BF222382468B4608BFCD
:1026100023602BE64FF0FF3202FA03F303EA0A0AC3
:10262000E3E6C8F17F4808F57F0808F57B4808F124
:10263000E20801FA08F308930D9146E70023089396
:1026400001230D9341E718994246204601F0C4FE4C
:10265000189000287FF46BAFFEE55F466ED10B9AB1
:10266000CBF3130342B3324A934228D1049B514621
:10267000EBB12D4B3B40B3F1D46F4FF0FF3219D883
:102680001B0DC3F16B0302FA03F3994217D1294BD7
:102690009F4202D101313FF4DFAD234B3B4003F5B4
:1026A000801B4FF0000A049B002BA4D1DEE54FF005
:1026B000FF33EAE71346E8E753EA0A038CD0089BA6
:1026C000DBB13B42EFD00B9B049A50465946C3B155
:1026D000FFF75EFB02460B4651EC180BFDF7D6FDEB
:1026E00082468B46DFE71340A3F580136FEA135B46
:1026F0006FEA0B5B4FF0FF3AD5E70D9B13EA0A0F29
:10270000E0E7FFF745FB02460B4651EC180BFDF7DF
:10271000BBFD0022002382468B46FEF7D5F9002838
:10272000C1D011E602FCFFFF0000F07F000050392D
:10273000FFFF0F00FFFFEF7FE8F200083146284659
:1027400002F038F859EC108B10EE100A00224FF00E
:1027500080434946FEF7CCF900287AD00B9B002B2A
:102760004AD0954B0022CDE90823DFF84C924FF078
:102770000008924B3B400D930D9A914B9A4240F0CA
:10278000B080DDE90801A7F1547B4BEC10ABCDE93B
:10279000080101F037FFDDE9080153EC102BFDF7CC
:1027A0002BFF52465B46FDF771FD0B468349854A78
:1027B00019409142824660D918EE903A02F1547263
:1027C000934204D118EE103A01333FF445ADDFF8DF
:1027D00000B24FF0FF3A1899204601F0E1FB05994D
:1027E000204601F0DDFB3146204601F0D9FB2946A9
:1027F000204601F0D5FB1AE6BAF1000F1BD1CBF34E
:102800001303F3B96C4B002240464946FEF766F9C4
:10281000D0B9404649466C4B0022FDF7EDFE80469C
:10282000894609F10043CDF850801593DDE9142362
:10283000CDE908239DE7BAF1010F02D1002F3FF443
:1028400083AD624B00228EE7DFF87C914FF00008E9
:10285000E7E75D4B404649460022FDF7CDFE0B9B66
:102860008046894633B901F100430E900F93DDE9AC
:102870000E23DDE7CDE90E89F9E703F1547B049BD4
:10288000002BA8D12BF000430D9A1B0D1B059A427B
:10289000A1D140464946FEF70FFAFDF77FFE0246FA
:1028A0000B4640464946FDF7EFFC0B9ACBF313036A
:1028B00043EA0A0313438046894655D036A3D3E939
:1028C0000023FEF70BF900287FF4D0AC34A3D3E942
:1028D000002340464946FEF71FF900283FF47BAF2E
:1028E000C4E4049B33B30D9BB3F1D46F22D82EA361
:1028F000D3E9002340464946FEF7FAF8A0B149461D
:102900004046FEF751F9012838BF0120FDF7FAFDD6
:102910000B9B8046894623BB01F100431090119325
:10292000DDE91023CDE90823099B0D9A03F1D66355
:102930009B1A0993DDE90801B0EE480AF0EE680A37
:10294000CDE9080101F05EFEDDE9080153EC102B32
:10295000FDF752FE53EC182BFDF798FC82468B4690
:102960008DE7CDE91089DBE711A3D3E90023FEF75A
:10297000B5F8B2E700230A93139A179B1360FFF789
:102980006BBA652A3FF45FAB452A3FF45CAB012389
:10299000FFF794BBAFF300809535A094FFFFDF3FB6
:1029A00035E5AF350000E03F0000C0FFFFFFDF412D
:1029B0009535A094FFFFCF3F0000F03F0000F07F6F
:1029C0000000E07FFFFF9F7C0000E03F0000F0BFC1
:1029D000FFFFEF7F014BFFF7F7B900BF6800002052
:1029E000012B2DE9F04701D0242B06D900F0F6FE8B
:1029F000162303600020BDE8F087DFF8E4C00D4631
:102A00002E4615F8014B14F80C7017F00807F7D193
:102A10002D2C32D12C780127B51C002B5BD0102B2C
:102A200009D1302C07D12C7804F0DF04582C4DD17B
:102A30006C781023023507F1004808F1FF384FF099
:102A4000000CB8FBF3F9664603FB198AA4F1300EBB
:102A5000BEF1090F16D87446A34224DDBCF1000F65
:102A60001EDBB1451CD301D1A24519DB06FB034691
:102A70004FF0010C15F8014BE8E72B2C04BF2C7824
:102A8000B51CCAE7A4F1410EBEF1190F01D8373CBD
:102A9000E2E7A4F1610EBEF1190F04D8573CDBE761
:102AA0004FF0FF3CE6E7BCF1000F05DA222303609C
:102AB000464642B930469EE707B17642002AF9D031
:102AC000BCF1000F00D0691E1160F3E73024002B29
:102AD000B1D10823AFE7302CA5D00A23ABE700BF64
:102AE00011F30008FFF77CBF2DE9F74F03690C696C
:102AF000A3420746C0F28180013C01F1140800F1B5
:102B0000140505EB8403019358F8243055F824206C
:102B100001339A424FEA840B08EB8409B2FBF3F6C7
:102B200031D34FF0000E4046AC46F24650F8042B2D
:102B300093B206FB03E34FEA134E9BB2AAEB0303E7
:102B4000DCF800A0120C13FA8AF306FB02E20093F1
:102B5000009B4FEA124E92B2C2EB1A4202EB2342A2
:102B6000BDF80030814543EA02434CF8043B4FEA8C
:102B7000224ADBD255F80B302BB9019B043B9D4216
:102B80001A462ED33C61384601F096FC002824DB1F
:102B9000013628464FF0000C58F8042BD0F800E01E
:102BA00093B2ACEB0303120C13FA8EF3C2EB1E428A
:102BB00002EB23429BB243EA0243C14540F8043B87
:102BC0004FEA224CE8D255F8242005EB840322B9C1
:102BD000043B9D421A460AD33C61304603B0BDE82F
:102BE000F08F1268043B002ACCD1013CC7E7126881
:102BF000043B002AF0D1013CEBE70020EEE70000A7
:102C00002DE9F04F2DED048B57EC106B93B0456A16
:102C1000DDF88080069110EE10AA044609920C930C
:102C2000BB4675B9102001F053F90246606220B925
:102C3000A74BEA21A74802F0C1F8C0E90155056099
:102C4000C560636A196851B15A684A6001239340AC
:102C50008B60204601F0A4F9636A00221A603B1ED3
:102C6000AABF002323F0004BC8F800309A4BBCBF2A
:102C70000122C8F8002033EA0B031BD10C9A42F260
:102C80000F731360CBF31303334300F09285219B42
:102C900063B9924B22E0924B01930833219A13605F
:102CA000019813B0BDEC048BBDE8F08F8B4B019302
:102CB0000333F3E70022002350465946FDF704FF93
:102CC0004BEC19AB804658B10C9A01231360219B41
:102CD000002B00F06B8583481860431E0193DFE7EB
:102CE0004BEC10AB10AA11A9204601F007FDCBF365
:102CF0000A5508EE100A002D00F0848019EE903A73
:102D0000C3F3130343F07F57564647F44017A5F229
:102D1000FF35CDF83880744B002230463946FDF738
:102D2000B3FA65A3D3E90023FDF766FC64A3D3E9F6
:102D30000023FDF7ABFA064628460F46FDF7F2FBE7
:102D400061A3D3E90023FDF757FC02460B4630464A
:102D50003946FDF79BFA06460F46FDF7FDFE0022B9
:102D60000090002330463946FDF7B8FE50B1009878
:102D7000FDF7D8FB32463B46FDF7A6FE10B9009B97
:102D8000013B0093009B162B5AD8009A574B03EB3C
:102D9000C203D3E9002351EC190BFDF79FFE002875
:102DA00050D0009B013B009300230B93109B5D1BB5
:102DB0006B1E059345BFC5F1010304930023002357
:102DC0004CBF05930493009B002B3DDB059B009AB1
:102DD0000A921344059300230793069B092B00F2E4
:102DE0008980052BC4BF043B0693069BA3F1020315
:102DF000CCBF00250125032B00F28780DFE803F01C
:102E00002D3A3859DDE910531D4405F23243202B89
:102E1000C1BFC3F1400305F212400BFA03F326FAD7
:102E200000F0DABFC3F1200306FA03F01843FDF700
:102E300069FB01230646A1F1F877013D0E936AE78D
:102E40000123B2E70B90B1E7049B009A9B1A04930D
:102E50005342079300230A93BFE700230893099B7B
:102E6000002B55DC0123CDE902331A4609920CE010
:102E70000123F3E70023099A0893009B134402936C
:102E80000133012B0393B8BF0123606A0022426023
:102E9000042202F114069E4241683DD9204601F009
:102EA0003FF8019000283BD1114B02464FF4D571F9
:102EB000C0E60123DFE700BF61436F63A787D23F0E
:102EC000B3C8608B288AC63FFB799F501344D33F19
:102ED0001EF4000835F400080000F07F1AF4000822
:102EE00011F4000895F200080000F83F08F6000809
:102EF000B3F4000801250023069308954FF0FF3333
:102F0000CDE9023300221223B0E701230893F5E74D
:102F1000099BCDE90233B8E7013141605200B8E7BF
:102F2000636A019A1A60039B0E2B00F29D80002DAC
:102F300000F09A80009B002B32DDB74A03F00F03AC
:102F400002EBC303D3E90089009BD8054FEA23179E
:102F500016D5B24B51EC190BD3E90823FDF776FCDB
:102F600007F00F0782468B460325AC4E57B9424601
:102F70004B4650465946FDF769FC82468B4628E091
:102F80000225F2E7F90708D540464946D6E900236D
:102F9000FDF732FB0135804689467F100836E5E7AC
:102FA00000F09B80009B9D4F5E429B4B06F00F0202
:102FB00003EBC203D3E9002351EC190BFDF71CFB13
:102FC000361182468B4600230225002E7AD1002B33
:102FD000D3D10B9B002B00F08280914B00225046F6
:102FE0005946FDF77BFD002879D0039B002B76D056
:102FF000029B002B36DD009B504659465F1E002287
:10300000884BFDF7F9FA029E82468B460135284629
:10301000FDF788FA52465B46FDF7EEFA824B002236
:10302000FDF734F9D046D9468246A1F1507B002EF7
:1030300058D17E4B002240464946FDF725F95246BD
:103040005B4680468946FDF767FD002840F0958283
:1030500052460BF1004340464946FDF73FFD00282C
:1030600040F089825BEC19AB119B002BC0F24881C8
:10307000009A0E2A00F34481674B03EBC203D3E9A5
:103080000089099B002B80F2D580039B002B00F365
:10309000D18040F06F82654B002240464946FDF7E3
:1030A000ABFA52465B46FDF72DFD039E37460028DE
:1030B00040F04582019D312305F8013B009B01331F
:1030C000009340E2F20705D5D7E90023FDF794FA13
:1030D000013501237610083777E7022579E7009F4D
:1030E000039E94E701994C4B31440D91089903EBF1
:1030F000C60353E90223002943D04D490020FDF7C0
:10310000A5FB52465B46FDF7BFF8019D82468B4604
:1031100049464046FDF720FD0646FDF703FA024604
:103120000B4640464946FDF7AFF8303605F8016BCF
:1031300052465B4680468946FDF7D0FC002863D1A5
:1031400042464B4636490020FDF79EF852465B4604
:10315000FDF7C4FC002840F0B5800D9B9D4281D056
:10316000304B002250465946FDF746FA2D4B824619
:103170008B46404649460022FDF73EFA8046894686
:10318000C6E750465946FDF737FA0D9B019D0F9350
:1031900082468B4649464046FDF7DEFC0646FDF773
:1031A000C1F9303602460B4640464946FDF76CF8F9
:1031B00005F8016B0D9B9D42804689464FF0000249
:1031C00024D11B4B50465946FDF760F802460B468A
:1031D00040464946FDF7A0FC002873D152465B46A5
:1031E00013490020FDF750F802460B464046494679
:1031F000FDF774FC00283FF435AF0F9D6B1E0F9355
:1032000015F8013C302BF8D0009749E0054BFDF74D
:10321000F3F980468946BDE708F60008E0F50008A6
:103220000000F03F0000244000001C40000014405B
:103230000000E03F019D56465F4642464B46304601
:103240003946FDF703FBFDF787FC8246FDF76AF977
:1032500042464B46FDF7D0F902460B46304639460A
:103260000AF13006FDF710F805F8016B019E039F87
:10327000AE1BB74202460B4635D1FDF707F8424672
:103280004B4606460F46FDF747FCD0B942464B4633
:1032900030463946FDF718FC10B11AF0010F10D175
:1032A000204618EE101A00F07BFE002300982B70C9
:1032B0000C9B01301860219B002B3FF4F1AC1D608A
:1032C000EEE4009F2B461D4613F8012D392A06D146
:1032D000019A9A42F7D10199302201370A701A787F
:1032E00001321A7090E7A64B0022FDF785F9002203
:1032F000002306460F46FDF7E7FB00289DD0CFE7E9
:10330000089A002A00F0D780069A012A00F3BA80B2
:103310000E9A002A00F0B28003F23343079E049D08
:10332000049A1A440492059A01211A4420460592EF
:1033300000F038FF0746002D0CDD059B002B09DD52
:10334000AB42049AA8BF2B46D21A0492059AED1AF2
:10335000D31A0593079B1BB3089B002B00F0AF808B
:10336000002E13DD39463246204600F0DBFF18EE12
:10337000102A01460746204600F02AFF18EE101AD0
:103380008046204600F00CFE08EE108A079B9A1B30
:1033900006D018EE101A204600F0C4FF08EE100AFE
:1033A0000121204600F0FEFE0A9B002B064640F35A
:1033B00088801A460146204600F0B4FF069B012B88
:1033C000064640F381804FF00008336906EB830323
:1033D000186900F097FEC0F12000059B184410F01A
:1033E0001F0000F09280C0F12003042B40F38A807C
:1033F000C0F11C00049B03440493059B0344054453
:103400000593049B002B07DD18EE101A1A46204680
:1034100000F0E2FF08EE100A059B002B05DD3146A7
:103420001A46204600F0D8FF06460B9B002B6ED0B4
:1034300018EE100A314601F03FF8002867DA009BC9
:10344000013B18EE101A00930A220023204600F0D8
:10345000C9FD089B08EE100A002B00F0B181002383
:1034600039460A22204600F0BDFD029B002B07468C
:1034700000F38E80069B022B51DC89E0109BC3F188
:1034800036034BE7039B5E1E079BB342BFBF079B00
:103490000796F21A0A9BB6BF9B189E1B0A93039BC2
:1034A000B8BF0026002BB7BFDDE90323DDE90335F4
:1034B0009D1A002334E7079E049D089F3BE7079A67
:1034C00067E7069B012B18DCBAF1000F15D1CBF38F
:1034D000130393B92BF000431B0D1B0583B1049B11
:1034E00001330493059B013305934FF001080A9BB8
:1034F000002B7FF46AAF01206FE74FF00008F6E77A
:103500009846F4E73FF47DAF18461C3072E7039B02
:10351000002B37DC069B022B34DD039B0293029BBE
:103520006BB931460522204600F05CFD0146064697
:1035300018EE100A00F0C0FF00283FF7BBAD099B52
:10354000019DDB4300934FF000083146204600F018
:1035500027FD002F3FF4A4AEB8F1000F05D0B84509
:1035600003D04146204600F01BFD3946204600F0BE
:1035700017FD95E600263746E1E70097374699E5BF
:1035800000002440089B002B00F0CA80039B02939C
:10359000002D05DD39462A46204600F01DFF07466E
:1035A000B8F1000F5BD07968204600F0B9FC054601
:1035B00028B9874B024640F2EA21FFF73BBB3A6944
:1035C0000232920007F10C010C3000F09BFC01224A
:1035D0002946204600F000FF019B03F10109DDE9C7
:1035E0000123134405930AF00103B84604930746E8
:1035F000314618EE100AFFF777FA4146029000F1C3
:10360000300A18EE100A00F057FF3A460390314690
:10361000204600F06DFFC26809F1FF3B054602BB82
:10362000014618EE100A00F047FF024629462046E0
:10363000079200F0B5FCDDE9063243EA0201049B83
:103640000B434D460FD1BAF1390F2AD0039B002B03
:1036500002DD029B03F1310A8BF800A075E73846C2
:10366000BAE70122E2E7039B002B04DB06990B4338
:1036700004990B4322D1002AEEDD18EE101A012224
:10368000204600F0A9FE314608EE100A00F014FFB3
:10369000002803DCE0D11AF0010FDDD0BAF1390FB8
:1036A000D7D139238BF800302B461D46013B15F846
:1036B000012C392A71D001321A7046E7002A07DD41
:1036C000BAF1390FEDD00AF101038BF800303CE775
:1036D000059B09F801AC994547D018EE101A002354
:1036E0000A22204600F07EFCB84508EE100A4FF092
:1036F00000034FF00A024146204606D100F072FC5A
:103700008046074609F1010972E700F06BFC394673
:10371000804600230A22204600F064FC0746F1E7B9
:10372000039B0293019D18EE100A3146FFF7DCF966
:1037300000F1300A019B05F801ABEA1A029B9342A3
:1037400009DD18EE101A00230A22204600F04AFC78
:1037500008EE100AE7E7029B002BC8BF1D46019B3D
:10376000D8BF01251D444FF0000818EE101A0122A1
:10377000204600F031FE314608EE100A00F09CFEB3
:10378000002891DC02D11AF0010F8DD12B461D4685
:1037900013F8012D302AFAD0D7E6019A9A4284D143
:1037A000009B0133009331231370CEE6094BFFF7E2
:1037B00095BA219B002B7FF46EAA074BFFF78EBAB8
:1037C000029B002BAEDC069B022B3FF7A8AEA9E7BD
:1037D000B3F4000894F2000811F40008014B1868D3
:1037E000704700BF000000200369B3EB611F2DE9A3
:1037F000F0434FEA611200F1140445DD11F01F019E
:1038000004EB830604EB82050CD100F11007294676
:10381000B14234D39B1A9B00EA1E964238BF002364
:10382000234415E054F82270C1F12008CF4005F17F
:10383000040EA1467645F44615D89A1A9200043A29
:103840000135AE4238BF0022A318A75007B1043398
:103850001A1BA3424FEAA20208BF0023026108BF5D
:103860004361BDE8F083DCF800C00CFA08FC4CEAC8
:10387000070749F8047B5EF8047BCF40DAE751F88C
:1038800004CB47F804CFC3E72346E1E7A0F13003B8
:10389000092B02D82038C0B27047A0F16103052B74
:1038A00001D84738F7E7A0F14103052B01D82738A5
:1038B000F1E70020704700002DE9F04F2DED028B5D
:1038C00089B008EE100A0493B44B1B6801931846A4
:1038D0008B469046FCF77CFC019BDBF80020034400
:1038E000824613F8013C0593931CC2F1FF2202F5B6
:1038F0007F02FE32D1181F4613F8010B00913028C9
:10390000F8D0FFF7C3FF044600283AD10199524688
:10391000384601F031FA0546002868D117F80A0048
:1039200007EB0A06FFF7B2FF002862D0334618788B
:1039300030281F4603F10103F9D0FFF7A7FF012349
:10394000B0FA80F46409354600933A4616460132CF
:103950003078FFF79BFF0028F8D101995246304696
:1039600001F00AFA80B94DB906EB0A052A46164657
:1039700001323078FFF78AFF0028F8D1AD1BAD0087
:1039800004E000242546E0E7002DF7D1337803F06A
:10399000DF03502B3BD173782B2B2CD02D2B2ED02B
:1039A000711C4FF000090878FFF770FF431EDBB26F
:1039B000182B2CD8A0F1100211F8010FFFF766FFA9
:1039C000431EDBB2182B1DD9B9F1000F00D05242B3
:1039D0001544CBF80010E4B1009B002B14BF002766
:1039E0000627384609B0BDEC028BBDE8F08F3E4695
:1039F00025460124CAE74FF00009B11CD3E74FF078
:103A00000109FAE70A2303FB0202103AD4E7314620
:103A1000DFE7F31B013B2146072B0BDC18EE100AF6
:103A200000F07EFA044640B95D4B0246DE215D4857
:103A300001F0C4F901315B10EEE700F114094FF019
:103A4000000BCAF10103CDF80890CDF800B0069341
:103A5000B74240D30298009B40F8043BA0EB09001A
:103A6000801046012061184600F04CFB301AD8F84F
:103A70000060B04263DD871B3946204600F0F0FE4F
:103A80008246A8B17B1E591103F01F0259F821107C
:103A90004FF0010A0AFA02F20A4209D0534505DD45
:103AA000B91E204600F0DCFE002845D14FF0020A86
:103AB00039462046FFF798FE3D44D8F80830AB421F
:103AC0004CDA18EE100A214600F06AFA149A002324
:103AD0001360A32785E7731E059A039316F8013C2C
:103AE000934219D0BBF1200F07D1029B009A43F8F3
:103AF000042B0293002300939B4616F8010CFFF75A
:103B0000C5FE009B00F00F0000FA0BF0034300938A
:103B10000BF1040B039B0DE0039B069A1344BB427D
:103B2000E0D3184601990793524601F025F9079B07
:103B30000028D7D11E468BE74FF0030AB8E70ADA10
:103B4000371A214618EE100A3A4600F045FCED1BE4
:103B5000044600F114094FF0000AAEE7D8F804005B
:103B6000A84272DD451BAE4236DCD8F80C30022B81
:103B70002AD0032B2CD0012B1CD1AE421AD1012EFE
:103B800012D1049AD8F80430136001232361C9F8D4
:103B90000030149B62271C6023E700BF4CF500082F
:103BA000B3F40008C4F40008711E204600F058FE6B
:103BB0000028E6D118EE100A214600F0F1F9149A17
:103BC0000023136050270CE7159B002BF2D1D8E798
:103BD000159B002BD5D1EDE76F1EBAF1000F31D147
:103BE00027B13946204600F03BFE82467B11012179
:103BF00059F8233007F01F0701FA07F71F4229463B
:103C0000204618BF4AF0020A761BFFF7EDFDD8F8F0
:103C100004500227BAF1000F48D0D8F80C30022B1C
:103C200015D0032B17D0012B09D11AF0020F06D0A3
:103C3000D9F800004AEA000A1AF0010F0ED147F045
:103C4000100733E04FF0010AD0E70127E2E7159BA8
:103C5000C3F101031593159B002BF0D0D4F810B0DD
:103C600004F114034FEA8B0A03EB8B014FF0000CB5
:103C7000184653F8042BB2F1FF3F1CD0013202600A
:103C8000022F04F114033FD1D8F80020013AB242C8
:103C90000AD17111012253F8213006F01F0602FAF1
:103CA00006F61E4218BF174647F02007149B1C60FB
:103CB000049B1D6095E6994243F804CCD8D8A368CC
:103CC0009B4519DB616818EE100A013100F028F9F4
:103CD000814618B91A4B02468421A8E622690232AD
:103CE00004F10C0192000C3000F00CF9214618EEA2
:103CF000100A00F055F94C4623695A1C04EB830363
:103D0000226101225A61BBE722695A450BDD01217C
:103D10002046FFF769FDD8F808300135AB42FFF6C1
:103D2000D0AE0127C0E716F01F06FAD05344C6F103
:103D3000200653F8040C00F0E5F9B042E7DBF0E7A9
:103D4000B3F40008C2F10802920070B5C2F1200677
:103D50004368046803FA06F52C43D340046040F836
:103D6000043F8842F4D370BD30B50368013311F8C5
:103D7000014B14B90360012030BD13F8012BA2F1EF
:103D80004105192D98BF2032A242F0D00020F3E760
:103D90002DE9F04F0B685E1102EB860613F01F034E
:103DA00087B018BF04360025371F9046026801937C
:103DB000824646F8045CB9463C460295AB465178CB
:103DC000531C039341B3084605920491FFF75EFD2F
:103DD00000284FD10499059A202918D8029B9B45A9
:103DE00013DD4C4506D2072D04DC2A464946204601
:103DF000FFF7A8FF444550D90023A4F1040944F873
:103E0000043CCDF808B04C461D46039AD7E7292953
:103E100056D10232CAF80020BBF1000F50D04C45F9
:103E200006D2072D04DC2A4649462046FFF78AFFC2
:103E3000444534D9A8F10402234653F8041B42F840
:103E4000041F9F42F9D23B1B23F0030304330134C8
:103E5000033EB44288BF04234344002243F8042BAA
:103E60009F42FBD23B681BB9474527D101233B60EA
:103E7000052026E00135082D0BF1010B06DD444538
:103E8000C3D9002344F8043C0125043C226800F017
:103E90000F0040EA02122260B7E70825B5E7019B50
:103EA000002BDFD04FF0FF32C3F1200322FA03F3DF
:103EB00056F8042C1A4046F8042CD3E7043FD1E707
:103EC000042007B0BDE8F08F00487047580100207B
:103ED000024B0146186800F067BD00BF00000020DB
:103EE00082B001B901A942B14BB113780B601278CD
:103EF000101E18BF012002B070471046FBE76FF09C
:103F00000100F8E70A44914200F1FF3300D1704705
:103F100010B511F8014B03F8014F9142F9D110BDD2
:103F200070B5466A04460D4676B91020FFF7D0FFFB
:103F30000246606220B9184B1848662100F03EFF27
:103F4000C0E901660660C660666AF36883B1636AA9
:103F5000DB6853F82500B8B9012101FA05F6721D96
:103F60009200204600F09DFC60B1C0E901560EE0D1
:103F700021220421204600F094FC636AF060DB6893
:103F8000002BE4D1002070BD026843F825200023F7
:103F9000C0E90333F7E700BF1EF4000860F500082E
:103FA00070B5466A05460C4676B91020FFF790FFBB
:103FB0000246686220B9094B09488A2100F0FEFEDA
:103FC000C0E901660660C6603CB16B6A6268DB6886
:103FD00053F82210216043F8224070BD1EF40008FF
:103FE00060F500082DE9F0410D6907460C461E46B4
:103FF00001F1140C0020DCF8003099B202FB0161E1
:104000001E0C0B0C02FB063389B2013001EB03419D
:1040100085424CF8041B4FEA1346ECDC0EB3A36850
:10402000AB4219DC616838460131FFF779FF804601
:1040300028B902460C4B0D48B52100F0BFFE22699D
:10404000023204F10C0192000C30FFF75BFF2146B5
:104050003846FFF7A5FF444604EB850301355E6152
:1040600025612046BDE8F081B3F4000860F5000842
:104070002DE9F8430C4615461F460922083306462B
:1040800093FBF2F3002101229A4209DB3046FFF74D
:1040900047FF40B90246194B1948CE2100F08EFE69
:1040A00052000131F0E7089B4361092D4FF00103F5
:1040B000036116DD04F10909C8462C4418F8013BD8
:1040C0000146303B0A223046FFF78CFFA045F5D170
:1040D000A5F108044C442D1B6319BB4204DBBDE869
:1040E000F8830A340925F6E714F8013B0146303B12
:1040F0000A223046FFF776FFEEE700BFB3F4000870
:1041000060F50008030C1B04D3B90004102310F061
:104110007F4F04BF0002083310F0704F04BF00014E
:10412000043310F0404F04BF80000233002805DB49
:1041300010F0804F03F1010308BF20231846704799
:104140000023E4E7036813F0070201460BD0DA0707
:1041500023D4980749BF5B089B0801200B605CBF14
:104160000B600220704798B2A8B91B0C1020DAB27D
:104170000AB908301B0A1A0704BF1B0904309A0742
:1041800004BF9B080230DA0703D45B0800F101008A
:1041900005D00B6070471046E9E7002070472020EB
:1041A0007047000010B50C460121FFF7B9FE02462A
:1041B00028B9054B05484FF4A07100F0FFFD01231D
:1041C0004461036110BD00BFB3F4000860F500084E
:1041D0002DE9F04F91460A69D9F810309A42B8BFDC
:1041E0000B460C46BCBF4C4699462769D9F810A02F
:1041F000A368616807EB0A06B34285B0B8BF013116
:10420000FFF78EFE30B90246444B454840F25D113F
:1042100000F0D4FD00F1140505EB86082B460022C2
:10422000434521D304F1140303EB870709F1140379
:1042300003EB8A0202923A1B153A22F0030204327F
:1042400004F115018F4238BF04220192029A0393B0
:104250009A420CD8002E03DD58F8043D002B5AD0AA
:10426000066105B0BDE8F08F43F8042BD8E7B3F83A
:1042700000A0BAF1000F24D004F1140EA9464FF0AB
:10428000000C5EF8042BD9F800101FFA82FB89B2EB
:104290000AFB0B114FEA124BD9F8002061444FEA98
:1042A000124C0AFB0BC202EB114289B241EA0241F5
:1042B000774549F8041B4FEA124CE2D8019A45F8B9
:1042C00002C0039AB2F802900433B9F1000F20D073
:1042D000296804F1140CAE464FF0000ABCF800B097
:1042E000BEF8022009FB0B22924489B241EA0A413E
:1042F0004EF8041B5CF8042BBEF80010120C09FBEE
:10430000021101EB1A4167454FEA114AE6D8019ABA
:10431000A95004359AE7013E9CE700BFB3F40008BA
:1043200060F500082DE9F843154612F00302064631
:104330000F4607D0254C013A002354F82220FFF7FE
:1043400051FE0746AD103DD0746A7CB91020FFF7CE
:10435000BFFD0246706228B91D4B1E484FF4D7714D
:1043600000F02CFDC0E901440460C460D6F824804C
:10437000D8F808404CB940F271213046FFF712FFDF
:104380000023C8F80800044603604FF00009EB075B
:104390000AD5394622463046FFF71AFF394680468D
:1043A0003046FFF7FDFD47466D100BD0206838B949
:1043B000224621463046FFF70BFF2060C0F80090F0
:1043C0000446E4E73846BDE8F88300BFD0F60008AD
:1043D0001EF4000860F500082DE9F0470C46496816
:1043E000236903EB6218A368074691464FEA621AF5
:1043F00008F10106B3420BDB3846FFF791FD054695
:1044000048B902462A4B2B4840F2D91100F0D6FC9D
:1044100001315B00EEE7002300F1140100F110020E
:104420001846534537DB20692AEAEA7A04F1140377
:1044300019F01F0901EB8A0103EB80002FD0C9F1AD
:10444000200E8A464FF0000C1A6802FA09F242EA7E
:104450000C024AF8042B53F8042B984222FA0EFC63
:10446000F2D8031B153B23F00303043304F11502B8
:10447000904238BF042341F803C0BCF1000F01D0C3
:1044800008F10206013E38462E612146FFF788FDFD
:104490002846BDE8F08742F8040F0133C1E704392C
:1044A00053F8042B41F8042F9842F9D8EAE700BFEB
:1044B000B3F4000860F5000830B502690C69121BFE
:1044C0000ED100F11403143103EB840001EB8401DD
:1044D00050F8045D51F8044DA54203D005D30122E4
:1044E000104630BD8342F3D3FAE74FF0FF32F7E7CF
:1044F0002DE9F84F0C460646114620469046FFF738
:10450000DBFF051E10D129463046FFF709FD30B903
:104510003A4B024640F23221394800F04FFC012369
:10452000C0E90435BDE8F88FA4BF4346A046304635
:10453000D8F80410A6BF1C4600250125FFF7F0FCA3
:1045400020B92E4B02464FF41071E5E7D8F81070F1
:104550002669C56004F1140908F1140500F1140E70
:1045600005EB870C09EB860608F11002F2460021E4
:1045700059F8043B52F804BF1FFA83F811FA8BF183
:104580001B0CA1EB0808C3EB1B4303EB28431FFAEA
:1045900088F819144E4548EA03434AF8043BE7D823
:1045A000331B153B23F0030304331534A64238BFF5
:1045B00004231D4473449E462E4666450ED30CF1DB
:1045C0000302521B22F00302033DAC4538BF002218
:1045D0001A4452F8043D7BB10761A3E756F8048BF7
:1045E00011FA88F2141404EB184492B242EA04421D
:1045F0004EF8042B2114E0E7013FEAE7B3F400088A
:1046000060F5000882B08DED000B019B1249194046
:10461000A1F15071002905DD00220B4643EC102B5F
:1046200002B070474942B1F1A07F4FEA21504FF0EC
:1046300000024FF0000304DA4FF4002141FA00F3C6
:10464000ECE7A0F114011E29DABF4FF0004020FA78
:1046500001F101210A46E1E70000F07FF8B50569A4
:1046600000F1140707EB85052E1F55F8044C204672
:10467000FFF748FDC0F120030A28DFF87CC00B607B
:1046800014DCC0F10B0E24FA0EF1B74241EA0C0320
:1046900034BF55F8081C0021153004FA00F021FA47
:1046A0000EF140EA010243EC102BF8BDB7423ABFCD
:1046B00055F8081CA5F1080600210B3817D0C0F1E9
:1046C000200C04FA00F5BE4221FA0CF445EA040578
:1046D0008CBF56F8044C002445F07F5301FA00F0DB
:1046E00024FA0CF443F4401340EA0402DBE744EA02
:1046F0000C030A46D7E700BF0000F03F2DE9F7435F
:104700008946012157EC106B9046FFF709FC0446DF
:1047100030B90246254B264840F20A3100F04EFBE4
:10472000C7F30A55C7F3130335BB002E019328D0F6
:1047300068460096FFF706FD009900B3019AC0F1A4
:10474000200302FA03F30B43C24063610192019B11
:10475000A361002B14BF022201222261D5B1A5F270
:1047600033450544C9F80050C0F13500C8F80000D1
:10477000204603B0BDE8F08343F48013D5E76161C0
:10478000E5E701A8FFF7DEFC019B636101222261DE
:104790002030E3E704EB8203A0F23240C9F80000C6
:1047A0001869FFF7AFFCC0EB4210DFE7B3F4000875
:1047B00060F500082DE9F74F884669468146FFF706
:1047C0004DFF01A9404655EC104BFFF747FFD9F8C4
:1047D0001030D8F81020A3EB020CDDE900329B1A50
:1047E00003EB4C1351EC100B002BD6BF0A462A46A4
:1047F000C3EB03338B462F46D4BF02EB035B02EBC4
:104800000357204610EE102A5B463946FCF71EF887
:1048100041EC100B03B0BDE8F08F013970B54911C0
:104820001469013102F1140300EB810103EB8404EC
:10483000051FA3420CD3A31A113B23F0030311322B
:10484000A24288BF002318440023884205D370BDCC
:1048500053F8046B45F8046FEBE740F8043BF4E7CA
:1048600000F1140200694B11984210B511DB0ADD0A
:1048700011F01F0107D052F8234024FA01F000FA8A
:1048800001F18C420BD102EB8303934203D8002049
:1048900010BD0346F7E753F8041D0029F5D00120A9
:1048A000F6E737B5A1FB02244CB91146019200F09E
:1048B0007BF8019A054630B9284603B030BD0C227A
:1048C00002600025F8E72146FCF7BAFBF4E7000098
:1048D00037B5002944D051F8043C0190002BA1F1D8
:1048E0000404B8BFE41800F0B3FA1E4A0198136834
:1048F00033B96360146003B0BDE8304000F0AEBA75
:10490000A34208D9256861198B4201BF19685B6809
:1049100049192160EDE71A465B680BB1A342FAD949
:1049200011685518A5420BD1246821445418A3429C
:104930001160E0D11C685B68536021441160DAE7C4
:1049400002D90C230360D6E7256861198B4204BFA6
:1049500019685B68636004BF491921605460CAE745
:1049600003B030BD0002002070B50E4E0C46316819
:10497000054611B900F0F0F930602146284600F0F4
:10498000EBF9431C0AD0C41C24F00304A04207D056
:10499000211A284600F0E0F9013001D14FF0FF3430
:1049A000204670BD040200202DE9F041CD1C25F009
:1049B000030508350C2D38BF0C25002D074601DBFB
:1049C000A94205D90C233B6000263046BDE8F081A2
:1049D0002E4E00F03DFA33681C4634BB294638465B
:1049E000FFF7C2FF431C04464DD134682646002E13
:1049F00040D123683146384604EB030800F0ACF997
:104A000080453AD1216803356D1A25F00305083534
:104A10000C2D38BF0C2529463846FFF7A5FF01307D
:104A20002BD023682B4423600EE02268521B1ED437
:104A30000B2A16D96119A342256018BF5960636813
:104A400008BF316062514B60384604F10B0600F03C
:104A500005FA26F00706231DF21AB6D09B1BA350B9
:104A6000B3E76268A3420CBF32605A60ECE72346AA
:104A70006468B2E734467668B9E70C233B60384691
:104A800000F0ECF9A1E72560DEE700BF000200209E
:104A90002DE9F0478E689E4282460C4690461F469E
:104AA00038D88A8912F4906F32D025680969A5EB4D
:104AB0000109656905EB450505EBD57501334B44E7
:104AC0006D109D4238BF1D46530531D52946FFF76D
:104AD0006BFF064650B90C23CAF80030A38943F097
:104AE0004003A3814FF0FF30BDE8F08721694A46BB
:104AF000FFF708FAA38923F4906343F08003A381AE
:104B0000266165614E44A5EB09052660A5603E4619
:104B1000BE4200D93E4620683246414600F07EF94A
:104B2000A3689B1BA3602368334423600020DBE75A
:104B30002A4600F099F906460028E1D1216950463D
:104B4000FFF7C6FEC7E700002DE9F04F98468B89B6
:104B50001B069DB007460D4614460ED50B6963B97A
:104B60004021FFF721FF2860286120B90C233B601A
:104B70004FF0FF30D1E040236B61002309932023E5
:104B80008DF82930CDF80C803023DFF8A8818DF81E
:104B90002A304FF0010923469A4613F8012B0AB137
:104BA000252AF9D1BAEB040B0BD05B4622462946E5
:104BB0003846FFF76DFF013000F0AA80099A5A4489
:104BC00009929AF80030002B00F0A28000234FF0E9
:104BD000FF32CDE905230AF1010A049307938DF80A
:104BE00053301A935446052214F8011B5148FBF721
:104BF000F7FA049AD8B9D00644BF20238DF8533071
:104C0000110744BF2B238DF853309AF800302A2B1C
:104C100015D0079A544600204FF00A0C214611F88F
:104C2000013B303B092B4ED9B0B1079214E0A0EB09
:104C3000080309FA03F313430493A246D2E7039B44
:104C4000191D1B680391002BBBBF5B4242F002029F
:104C500007930793B8BF049223782E2B0CD1637867
:104C60002A2B35D1039B1A1D1B680392002BB8BF5A
:104C70004FF0FF3302340593DFF8C8A021780322F8
:104C80005046FBF7ADFA40B14023A0EB0A0003FA0F
:104C900000F0049B03430134049314F8011B2648DD
:104CA0008DF828100622FBF79BFA002838D0234BFA
:104CB0001BBB039B073323F0070308330393099BB4
:104CC0003344099367E70CFB02320C460120A5E749
:104CD00000230134059319464FF00A0C204610F8C2
:104CE000012B303A092A03D9002BC5D00591C3E71F
:104CF0000CFB012104460123F0E703AB00932A4695
:104D00000F4B04A93846FCF743FA421C0646D6D19D
:104D1000AB895B063FF52CAF09981DB0BDE8F08F5D
:104D200003AB00932A46064B04A93846FCF7D4FC93
:104D3000EBE700BFDCF60008E6F60008911100087A
:104D4000914A0008E2F600089FED010B704700BF92
:104D5000000000000000F87F38B5064D002304462F
:104D600008462B600AF03CF8431C02D12B6803B1C3
:104D7000236038BD0802002010B57AB1034601391E
:104D8000841813F8010B11F8012F904201D1A342AE
:104D900001D1801A10BD0028F3D1FAE71046F9E7D7
:104DA00049B1FF2A85BF8A2303600A704FF0FF30A4
:104DB00098BF012070470846704700001FB5144691
:104DC0001A46094B1B680546D8684CB1074B009141
:104DD000CDE9013406492B4600F00EF800F08CFABC
:104DE000044B1C46F3E700BF00000020EDF600086E
:104DF000FAF6000828F700080EB403B5014603AB25
:104E0000054853F8042B0068019300F085F802B0C0
:104E10005DF804EB03B0704700000020884210B535
:104E200001EB020402D98442234607D8431EA14263
:104E300008D011F8012B03F8012FF8E702440146CE
:104E40008A4200D110BD13F8014D02F8014DF7E779
:104E5000014800F011BC00BF0C020020014800F026
:104E60000CBC00BF0C0200202DE9F0418046144626
:104E70000E4621B9BDE8F0411146FFF795BD2AB9AC
:104E8000FFF726FD25462846BDE8F08100F05CFCD2
:104E90008442074602D8B4EB500F12D82146404650
:104EA000FFF782FD05460028EDD0BC422246314680
:104EB00028BF3A46FFF726F831464046FFF708FD7F
:104EC000E1E73546DFE79368013B002B10B49360C0
:104ED00008DA9469A34201DB0A2903D15DF8044B87
:104EE00000F04AB91368581C1060197008465DF844
:104EF000044B7047F8B506460F461446D518AC4229
:104F000001D1002007E014F8011B3A463046FFF7B4
:104F1000DAFF431CF3D1F8BD2DE9F04F0D469DB0EB
:104F200014469846064618B183690BB900F006FB93
:104F3000894B9D421BD175686B6ED90705D4AB892F
:104F40009A0502D4A86D00F097FBAB891B0701D529
:104F50002B69EBB92946304600F060F9C0B16B6EA1
:104F6000DC070ED54FF0FF301DB0BDE8F08F7B4B56
:104F70009D4201D1B568DFE7794B9D4208BFF568D6
:104F8000DAE7AB899805EDD4A86D00F076FBE9E788
:104F90000023099320238DF82930CDF80C8030238D
:104FA000DFF8C0818DF82A304FF0010923469A4678
:104FB00013F8012B0AB1252AF9D1BAEB040B0BD057
:104FC0005B46224629463046FFF794FF013000F049
:104FD000AA80099A5A4409929AF80030002B00F0EE
:104FE000A28000234FF0FF32CDE905230AF1010A28
:104FF000049307938DF853301A935446052214F8FE
:10500000011B5848FBF7ECF8049AD8B9D10644BF05
:1050100020238DF85330130744BF2B238DF85330D2
:105020009AF800302A2B15D0079A544600204FF0EA
:105030000A0C214611F8013B303B092B4ED9B0B187
:10504000079214E0A0EB080309FA03F31343049357
:10505000A246D2E7039B191D1B680391002BBBBF1F
:105060005B4242F0020207930793B8BF0492237891
:105070002E2B0CD163782A2B35D1039B1A1D1B686C
:105080000392002BB8BF4FF0FF3302340593DFF8D3
:10509000E4A0217803225046FBF7A2F840B1402358
:1050A000A0EB0A0003FA00F0049B034301340493CD
:1050B00014F8011B2C488DF828100622FBF790F8F5
:1050C00000283FD0294B1BBB039B073323F007036A
:1050D00008330393099B3B44099367E70CFB0232B7
:1050E0000C460120A5E700230134059319464FF033
:1050F0000A0C204610F8012B303A092A03D9002B5C
:10510000C5D00591C3E70CFB012104460123F0E75C
:1051100003AB00932A46164B04A93046FCF738F837
:105120000746781CD6D16B6ED90705D4AB899A0592
:1051300002D4A86D00F0A1FAAB895B063FF512AF6F
:10514000099811E703AB00932A46094B04A930469E
:10515000FCF7C2FAE4E700BF4CF700086CF7000860
:105160002CF70008DCF60008E6F6000891110008AC
:10517000F54E0008E2F60008F8B50E46144605465E
:1051800018B183690BB900F0D9F9214B9C422BD19E
:105190006C68A369A360A3891A072FD523696BB331
:1051A00023692068C01A6369F6B28342374604DC7B
:1051B0002146284600F02EF930BBA368013BA360CE
:1051C00023685A1C22601E7063690130834204D038
:1051D000A389DB0706D50A2E04D12146284600F014
:1051E00019F988B93846F8BD0A4B9C4201D1AC6820
:1051F000CFE7094B9C4208BFEC68CAE72146284626
:1052000000F00CF80028CBD04FF0FF37EAE700BFE2
:105210004CF700086CF700082CF70008324B70B50B
:105220001D6806460C4625B1AB6913B9284600F047
:1052300085F92E4B9C420FD16C68A389B4F90C20E0
:1052400019072CD4DD0611D40923336042F0400342
:10525000A3814FF0FF303EE0254B9C4201D1AC686A
:10526000EBE7244B9C4208BFEC68E6E7580712D5F1
:10527000616B41B104F14403994202D03046FFF71B
:1052800027FB00236363A38923F02403A381002366
:10529000636023692360A38943F00803A381236922
:1052A0004BB9A38903F42073B3F5007F03D02146E3
:1052B000304600F009FAA089B4F90C2010F001037F
:1052C0000AD00023A36063695B42A361236943B9E9
:1052D00010F08000BAD170BD810758BF6369A36028
:1052E000F4E70020F7E700BF000000204CF70008BB
:1052F0006CF700082CF7000808B5062000F054FAF7
:10530000012009F09BFD00008A892DE9F041054646
:1053100010070C4658D44B68002B05DC0B6C002B97
:1053200002DC0020BDE8F081E66A002EF9D00023FF
:1053300012F480522F682B6032D0606DA3895A0717
:1053400005D56368C01A636B0BB1236CC01A0023C8
:105350000246E66A216A2846B047431CA38906D163
:1053600029681D292CD82A4ACA40D60728D50022E8
:105370006260D9042269226004D5421C01D12B68E5
:1053800003B96065616B2F600029CAD004F1440342
:10539000994202D02846FFF79BFA00206063C1E7DC
:1053A000216A01232846B047411CC7D12B68002B36
:1053B000C4D01D2B01D0162B01D12F60B1E7A389DA
:1053C00043F04003A381ADE70F69002FA9D09307F5
:1053D0000E6808BF4B690F6018BF0023A6EB0708D3
:1053E0008B60B8F1000F9CDD216AA66A43463A46FD
:1053F0002846B047002806DCA38943F04003A38178
:105400004FF0FF308EE70744A8EB0008E9E700BF44
:105410000100402038B50B6905460C4613B900253C
:10542000284638BD18B183690BB900F087F8144BD2
:105430009C421BD16C68B4F90C30002BEFD0626E2B
:10544000D00704D4990502D4A06D00F015F92846C0
:105450002146FFF759FF636EDA070546E0D4A389BA
:105460009B05DDD4A06D00F008F9D9E7054B9C42FF
:1054700001D1AC68DFE7044B9C4208BFEC68DAE777
:105480004CF700086CF700082CF70008002310B553
:105490000446C0E90033C0E9043383608181436678
:1054A000C2818361194608225C30FBF7C9FD054BB8
:1054B0006362054BA362054BE362054B24622363E1
:1054C00010BD00BFE1570008035800083B58000812
:1054D0005F580008014900F0AFB800BF155400083C
:1054E00070B568224D1E55430E4605F17401FFF755
:1054F0005BFA044640B10021C0E900160C30A06000
:1055000005F16802FBF79CFD204670BD014800F0E4
:10551000B3B800BF0D020020014800F0AEB800BFD4
:105520000D020020014800F0A7B800BF0E020020C5
:10553000014800F0A2B800BF0E02002010B50446DA
:10554000FFF7F0FFA3691BB1BDE81040FFF7F0BF04
:10555000C4E912332365134B134A1B68A262A342AA
:1055600004BF0123A361204600F020F860602046BC
:1055700000F01CF8A060204600F018F80022E0605F
:1055800004216068FFF782FFA06801220921FFF76C
:105590007DFFE06802221221FFF778FF0123A3615B
:1055A000D2E700BF80F20008D5540008F8B50746DE
:1055B000FFF7ACFF1E4B1E68B36913B93046FFF707
:1055C000BDFF4836D6E90134013B03D533680BB340
:1055D0003668F7E7B4F90C50D5B9164BE36004F11F
:1055E0005800656600F047F8FFF796FFC4E90155DB
:1055F000C4E904552560A5610822294604F15C0030
:10560000FBF71EFDC4E90D55C4E912552046F8BD4F
:105610006834D9E704213846FFF762FF044630605A
:105620000028D5D1FFF778FF0C233B60EEE700BFE1
:1056300080F200080100FFFF2DE9F8430646884686
:1056400000F148040027D4E90195B9F1010905D515
:105650002468002CF7D13846BDE8F883AB89012BCC
:1056600007D9B5F90E30013303D029463046C0477B
:1056700007436835E9E770477047704770B50E46D5
:10568000B1F90E10002996B014461D4608DAB6F995
:105690000C3000222A601A0610D44FF480630EE00A
:1056A0006A4600F003F90028F1DB019A02F4704227
:1056B000A2F500535A425A412A60EEE740230020E7
:1056C000236016B070BD00008B8973B59D07064638
:1056D0000C4607D504F1470323602361012363616E
:1056E00002B070BD01AB6A46FFF7C8FF00990546DE
:1056F0003046FFF759F948B9B4F90C309A05EFD4A0
:1057000023F0030343F00203A381E3E70D4BB362ED
:10571000A389206043F08003A381009B6361019B08
:1057200020615BB1B4F90E10304600F0D1F828B119
:10573000A38923F0030343F00103A381A089054358
:10574000A581CDE7D554000851F8043C181F002B63
:10575000BCBF0B58C01870471F2938B504460D460A
:1057600004D9162303604FF0FF3038BD426C12B1EC
:1057700052F821304BB9204600F030F82A46014655
:105780002046BDE8384000F017B8012B0AD0591C5C
:1057900003D1162303600120E7E7002442F82540E7
:1057A000284698470020E0E7024B01461868FFF7BB
:1057B000D3BF00BF0000002038B5074D00230446CA
:1057C000084611462B6009F031FB431C02D12B68BF
:1057D00003B1236038BD00BF0802002009F024BBDC
:1057E00010B50C46B1F90E1000F094F80028ABBFCC
:1057F000636DA3891B1823F48053ACBF6365A38139
:1058000010BD2DE9F0411F468B89DB0505460C468E
:10581000164605D5B1F90E100223002200F068F8F3
:10582000A389B4F90E1023F48053A38132463B467A
:105830002846BDE8F04100F017B810B50C46B1F9A4
:105840000E1000F055F8431CA38915BF606523F4C2
:10585000805343F48053A38118BFA38110BDB1F9D5
:105860000E1000F013B8000038B5074D0446084686
:10587000114600222A601A4609F0F3FA431C02D1AD
:105880002B6803B1236038BD0802002038B5064DEF
:105890000023044608462B6009F0F0FA431C02D1AD
:1058A0002B6803B1236038BD0802002038B5074DCE
:1058B00000230446084611462B6009F0E2FA431C17
:1058C00002D12B6803B1236038BD00BF080200205D
:1058D00038B5064D0023044608462B6009F0D6FA79
:1058E000431C02D12B6803B1236038BD080200209D
:1058F00038B5074D04460846114600222A601A466C
:1059000009F0C6FA431C02D12B6803B1236038BDED
:105910000802002038B5074D04460846114600220B
:105920002A601A4609F090FA431C02D12B6803B191
:10593000236038BD0802002010B5094B1860094CDF
:105940002068002302221946806809F075FB206850
:10595000002302221946406809F06EFB10BD00BF0B
:10596000100200200000002000B583B001904FF627
:10597000FF73012201A90448006806F00EFE019899
:1059800003B05DF804FB00BF1002002000B583B037
:105990004FF6FF7301220DF107010448006806F07D
:1059A00068FE9DF8070003B05DF804FB10020020BC
:1059B000B0F5E17F28BF4FF4E17007EE900AF8EEF2
:1059C000677AB2EE0A7AC7EE876A9FED087AC6EE6A
:1059D000877A9FED077A67EE877A9FED067A67EE02
:1059E000877A054BC3ED127A704700BFDB0F494041
:1059F0000000004600001042E01A0020B0F5E17FF0
:105A000028BF4FF4E17007EE900AF8EE677AB2EE25
:105A10000A7AC7EE876A9FED087AC6EE877A9FED0D
:105A2000077A67EE877A9FED067A67EE877A054BED
:105A3000C3ED247A704700BFDB0F494000000046E9
:105A400000001042E01A0020274B33F810305B4270
:105A50001BB2264A82FB03121A44D917C1EB222239
:105A60004FF4B47101FB12331BB2002BBCBF5B18A7
:105A70001BB21F4A12889B1A99B21BB2B42B2BDDA2
:105A8000A1F5B4731BB213441BB2184A82FB031274
:105A90001A44D917C1EB22224FF4B47101FB12331F
:105AA0001BB2134A1380907007EE903AF8EEE77A33
:105AB000DFED106A87EEA67AF2EE007A67EE277ABB
:105AC0009FED0D7A67EE877A9FED0C7A67EE877A05
:105AD0000B4BC3ED007A704713F1B40FBCBF01F557
